{
  "_format": "hh-sol-artifact-1",
  "contractName": "AdReviewPlatform",
  "sourceName": "contracts/AdReviewPlatform.sol",
  "abi": [
    {
      "inputs": [],
      "stateMutability": "nonpayable",
      "type": "constructor"
    },
    {
      "anonymous": false,
      "inputs": [
        {
          "indexed": true,
          "internalType": "address",
          "name": "user",
          "type": "address"
        },
        {
          "indexed": false,
          "internalType": "uint256",
          "name": "totalAds",
          "type": "uint256"
        },
        {
          "indexed": false,
          "internalType": "uint256",
          "name": "earnings",
          "type": "uint256"
        }
      ],
      "name": "AdWatched",
      "type": "event"
    },
    {
      "anonymous": false,
      "inputs": [
        {
          "indexed": true,
          "internalType": "address",
          "name": "companyOwner",
          "type": "address"
        },
        {
          "indexed": false,
          "internalType": "string",
          "name": "name",
          "type": "string"
        }
      ],
      "name": "CompanyRegistered",
      "type": "event"
    },
    {
      "anonymous": false,
      "inputs": [
        {
          "indexed": true,
          "internalType": "address",
          "name": "companyOwner",
          "type": "address"
        },
        {
          "indexed": false,
          "internalType": "string",
          "name": "productName",
          "type": "string"
        },
        {
          "indexed": false,
          "internalType": "uint256",
          "name": "rating",
          "type": "uint256"
        }
      ],
      "name": "ProductRated",
      "type": "event"
    },
    {
      "inputs": [
        {
          "internalType": "string",
          "name": "_name",
          "type": "string"
        },
        {
          "internalType": "string",
          "name": "_demoVideo",
          "type": "string"
        }
      ],
      "name": "addProduct",
      "outputs": [],
      "stateMutability": "nonpayable",
      "type": "function"
    },
    {
      "inputs": [
        {
          "internalType": "address",
          "name": "",
          "type": "address"
        }
      ],
      "name": "companies",
      "outputs": [
        {
          "internalType": "string",
          "name": "name",
          "type": "string"
        },
        {
          "internalType": "string",
          "name": "website",
          "type": "string"
        },
        {
          "internalType": "string",
          "name": "demoVideo",
          "type": "string"
        },
        {
          "internalType": "address",
          "name": "owner",
          "type": "address"
        }
      ],
      "stateMutability": "view",
      "type": "function"
    },
    {
      "inputs": [
        {
          "internalType": "uint256",
          "name": "",
          "type": "uint256"
        }
      ],
      "name": "companyList",
      "outputs": [
        {
          "internalType": "address",
          "name": "",
          "type": "address"
        }
      ],
      "stateMutability": "view",
      "type": "function"
    },
    {
      "inputs": [],
      "name": "getAllProducts",
      "outputs": [
        {
          "internalType": "address[]",
          "name": "",
          "type": "address[]"
        },
        {
          "internalType": "string[]",
          "name": "",
          "type": "string[]"
        },
        {
          "internalType": "string[]",
          "name": "",
          "type": "string[]"
        },
        {
          "internalType": "uint256[]",
          "name": "",
          "type": "uint256[]"
        }
      ],
      "stateMutability": "view",
      "type": "function"
    },
    {
      "inputs": [
        {
          "internalType": "address",
          "name": "_company",
          "type": "address"
        }
      ],
      "name": "getCompany",
      "outputs": [
        {
          "internalType": "string",
          "name": "",
          "type": "string"
        },
        {
          "internalType": "string",
          "name": "",
          "type": "string"
        },
        {
          "internalType": "string",
          "name": "",
          "type": "string"
        },
        {
          "internalType": "address",
          "name": "",
          "type": "address"
        }
      ],
      "stateMutability": "view",
      "type": "function"
    },
    {
      "inputs": [],
      "name": "getCompanyList",
      "outputs": [
        {
          "internalType": "address[]",
          "name": "",
          "type": "address[]"
        }
      ],
      "stateMutability": "view",
      "type": "function"
    },
    {
      "inputs": [
        {
          "internalType": "address",
          "name": "_company",
          "type": "address"
        }
      ],
      "name": "getCompanyProducts",
      "outputs": [
        {
          "components": [
            {
              "internalType": "string",
              "name": "name",
              "type": "string"
            },
            {
              "internalType": "string",
              "name": "demoVideo",
              "type": "string"
            },
            {
              "internalType": "uint256",
              "name": "rating",
              "type": "uint256"
            }
          ],
          "internalType": "struct AdReviewPlatform.Product[]",
          "name": "",
          "type": "tuple[]"
        }
      ],
      "stateMutability": "view",
      "type": "function"
    },
    {
      "inputs": [],
      "name": "owner",
      "outputs": [
        {
          "internalType": "address",
          "name": "",
          "type": "address"
        }
      ],
      "stateMutability": "view",
      "type": "function"
    },
    {
      "inputs": [
        {
          "internalType": "address",
          "name": "_company",
          "type": "address"
        },
        {
          "internalType": "uint256",
          "name": "_productIndex",
          "type": "uint256"
        },
        {
          "internalType": "uint256",
          "name": "_rating",
          "type": "uint256"
        }
      ],
      "name": "rateProduct",
      "outputs": [],
      "stateMutability": "nonpayable",
      "type": "function"
    },
    {
      "inputs": [
        {
          "internalType": "string",
          "name": "_name",
          "type": "string"
        },
        {
          "internalType": "string",
          "name": "_website",
          "type": "string"
        },
        {
          "internalType": "string",
          "name": "_demoVideo",
          "type": "string"
        }
      ],
      "name": "registerCompany",
      "outputs": [],
      "stateMutability": "nonpayable",
      "type": "function"
    },
    {
      "inputs": [],
      "name": "rewardPer100Ads",
      "outputs": [
        {
          "internalType": "uint256",
          "name": "",
          "type": "uint256"
        }
      ],
      "stateMutability": "view",
      "type": "function"
    },
    {
      "inputs": [
        {
          "internalType": "uint256",
          "name": "_newReward",
          "type": "uint256"
        }
      ],
      "name": "updateReward",
      "outputs": [],
      "stateMutability": "nonpayable",
      "type": "function"
    },
    {
      "inputs": [
        {
          "internalType": "address",
          "name": "",
          "type": "address"
        }
      ],
      "name": "users",
      "outputs": [
        {
          "internalType": "uint256",
          "name": "adsWatched",
          "type": "uint256"
        },
        {
          "internalType": "uint256",
          "name": "earnings",
          "type": "uint256"
        }
      ],
      "stateMutability": "view",
      "type": "function"
    },
    {
      "inputs": [],
      "name": "watchAd",
      "outputs": [],
      "stateMutability": "nonpayable",
      "type": "function"
    },
    {
      "inputs": [],
      "name": "withdrawEarnings",
      "outputs": [],
      "stateMutability": "nonpayable",
      "type": "function"
    },
    {
      "stateMutability": "payable",
      "type": "receive"
    }
  ],
  "bytecode": "0x6080604052662386f26fc1000060015534801561001b57600080fd5b50336000806101000a81548173ffffffffffffffffffffffffffffffffffffffff021916908373ffffffffffffffffffffffffffffffffffffffff160217905550612b778061006b6000396000f3fe6080604052600436106100ec5760003560e01c80638da5cb5b1161008a578063ca2efb5511610059578063ca2efb55146102f7578063d0366e5514610320578063d0b020741461035d578063ef343a0714610386576100f3565b80638da5cb5b1461024e578063a87430ba14610279578063b73c6ce9146102b7578063bca4a8bd146102ce576100f3565b8063425c8abd116100c6578063425c8abd146101a35780634c302f04146101cc57806362bc56e6146101e357806369358e2e14610223576100f3565b806302ee3a52146100f85780632eb6908d14610126578063355e6ce814610163576100f3565b366100f357005b600080fd5b34801561010457600080fd5b5061010d6103b1565b60405161011d9493929190611deb565b60405180910390f35b34801561013257600080fd5b5061014d60048036038101906101489190611e8c565b610931565b60405161015a9190611fd2565b60405180910390f35b34801561016f57600080fd5b5061018a60048036038101906101859190611e8c565b610bb7565b60405161019a949392919061204d565b60405180910390f35b3480156101af57600080fd5b506101ca60048036038101906101c591906120d3565b610d9f565b005b3480156101d857600080fd5b506101e1610e37565b005b3480156101ef57600080fd5b5061020a60048036038101906102059190611e8c565b611017565b60405161021a949392919061204d565b60405180910390f35b34801561022f57600080fd5b50610238611245565b6040516102459190612100565b60405180910390f35b34801561025a57600080fd5b506102636112d3565b6040516102709190612122565b60405180910390f35b34801561028557600080fd5b506102a0600480360381019061029b9190611e8c565b6112f7565b6040516102ae92919061214c565b60405180910390f35b3480156102c357600080fd5b506102cc61131b565b005b3480156102da57600080fd5b506102f560048036038101906102f09190612175565b611437565b005b34801561030357600080fd5b5061031e600480360381019061031991906122fd565b61166f565b005b34801561032c57600080fd5b50610347600480360381019061034291906120d3565b6117c3565b6040516103549190612122565b60405180910390f35b34801561036957600080fd5b50610384600480360381019061037f9190612375565b611802565b005b34801561039257600080fd5b5061039b611aba565b6040516103a8919061241c565b60405180910390f35b6060806060806000805b600480549050811015610472576000600482815481106103de576103dd612437565b5b9060005260206000200160009054906101000a900473ffffffffffffffffffffffffffffffffffffffff169050600360008273ffffffffffffffffffffffffffffffffffffffff1673ffffffffffffffffffffffffffffffffffffffff168152602001908152602001600020600401805490508361045c9190612495565b925050808061046a906124c9565b9150506103bb565b5060008167ffffffffffffffff81111561048f5761048e6121d2565b5b6040519080825280602002602001820160405280156104bd5781602001602082028036833780820191505090505b50905060008267ffffffffffffffff8111156104dc576104db6121d2565b5b60405190808252806020026020018201604052801561050f57816020015b60608152602001906001900390816104fa5790505b50905060008367ffffffffffffffff81111561052e5761052d6121d2565b5b60405190808252806020026020018201604052801561056157816020015b606081526020019060019003908161054c5790505b50905060008467ffffffffffffffff8111156105805761057f6121d2565b5b6040519080825280602002602001820160405280156105ae5781602001602082028036833780820191505090505b5090506000805b600480549050811015610918576000600482815481106105d8576105d7612437565b5b9060005260206000200160009054906101000a900473ffffffffffffffffffffffffffffffffffffffff1690506000600360008373ffffffffffffffffffffffffffffffffffffffff1673ffffffffffffffffffffffffffffffffffffffff168152602001908152602001600020600401805480602002602001604051908101604052809291908181526020016000905b828210156107c9578382906000526020600020906003020160405180606001604052908160008201805461069c90612540565b80601f01602080910402602001604051908101604052809291908181526020018280546106c890612540565b80156107155780601f106106ea57610100808354040283529160200191610715565b820191906000526020600020905b8154815290600101906020018083116106f857829003601f168201915b5050505050815260200160018201805461072e90612540565b80601f016020809104026020016040519081016040528092919081815260200182805461075a90612540565b80156107a75780601f1061077c576101008083540402835291602001916107a7565b820191906000526020600020905b81548152906001019060200180831161078a57829003601f168201915b5050505050815260200160028201548152505081526020019060010190610669565b50505050905060005b815181101561090257828986815181106107ef576107ee612437565b5b602002602001019073ffffffffffffffffffffffffffffffffffffffff16908173ffffffffffffffffffffffffffffffffffffffff168152505081818151811061083c5761083b612437565b5b60200260200101516000015188868151811061085b5761085a612437565b5b602002602001018190525081818151811061087957610878612437565b5b60200260200101516020015187868151811061089857610897612437565b5b60200260200101819052508181815181106108b6576108b5612437565b5b6020026020010151604001518686815181106108d5576108d4612437565b5b60200260200101818152505084806108ec906124c9565b95505080806108fa906124c9565b9150506107d2565b5050508080610910906124c9565b9150506105b5565b5084848484995099509950995050505050505090919293565b60606000600360008473ffffffffffffffffffffffffffffffffffffffff1673ffffffffffffffffffffffffffffffffffffffff16815260200190815260200160002060040180549050905060008167ffffffffffffffff811115610999576109986121d2565b5b6040519080825280602002602001820160405280156109d257816020015b6109bf611ac0565b8152602001906001900390816109b75790505b50905060005b82811015610bac57600360008673ffffffffffffffffffffffffffffffffffffffff1673ffffffffffffffffffffffffffffffffffffffff1681526020019081526020016000206004018181548110610a3457610a33612437565b5b9060005260206000209060030201604051806060016040529081600082018054610a5d90612540565b80601f0160208091040260200160405190810160405280929190818152602001828054610a8990612540565b8015610ad65780601f10610aab57610100808354040283529160200191610ad6565b820191906000526020600020905b815481529060010190602001808311610ab957829003601f168201915b50505050508152602001600182018054610aef90612540565b80601f0160208091040260200160405190810160405280929190818152602001828054610b1b90612540565b8015610b685780601f10610b3d57610100808354040283529160200191610b68565b820191906000526020600020905b815481529060010190602001808311610b4b57829003601f168201915b50505050508152602001600282015481525050828281518110610b8e57610b8d612437565b5b60200260200101819052508080610ba4906124c9565b9150506109d8565b508092505050919050565b6003602052806000526040600020600091509050806000018054610bda90612540565b80601f0160208091040260200160405190810160405280929190818152602001828054610c0690612540565b8015610c535780601f10610c2857610100808354040283529160200191610c53565b820191906000526020600020905b815481529060010190602001808311610c3657829003601f168201915b505050505090806001018054610c6890612540565b80601f0160208091040260200160405190810160405280929190818152602001828054610c9490612540565b8015610ce15780601f10610cb657610100808354040283529160200191610ce1565b820191906000526020600020905b815481529060010190602001808311610cc457829003601f168201915b505050505090806002018054610cf690612540565b80601f0160208091040260200160405190810160405280929190818152602001828054610d2290612540565b8015610d6f5780601f10610d4457610100808354040283529160200191610d6f565b820191906000526020600020905b815481529060010190602001808311610d5257829003601f168201915b5050505050908060030160009054906101000a900473ffffffffffffffffffffffffffffffffffffffff16905084565b60008054906101000a900473ffffffffffffffffffffffffffffffffffffffff1673ffffffffffffffffffffffffffffffffffffffff163373ffffffffffffffffffffffffffffffffffffffff1614610e2d576040517f08c379a0000000000000000000000000000000000000000000000000000000008152600401610e24906125bd565b60405180910390fd5b8060018190555050565b600260003373ffffffffffffffffffffffffffffffffffffffff1673ffffffffffffffffffffffffffffffffffffffff1681526020019081526020016000206000016000815480929190610e8a906124c9565b919050555060006064600260003373ffffffffffffffffffffffffffffffffffffffff1673ffffffffffffffffffffffffffffffffffffffff16815260200190815260200160002060000154610ee0919061260c565b03610f4157600154600260003373ffffffffffffffffffffffffffffffffffffffff1673ffffffffffffffffffffffffffffffffffffffff1681526020019081526020016000206001016000828254610f399190612495565b925050819055505b3373ffffffffffffffffffffffffffffffffffffffff167f57557adf09426f9adea087dd152a12b45ffbf1d16730e77f2ca4c955cbc497e4600260003373ffffffffffffffffffffffffffffffffffffffff1673ffffffffffffffffffffffffffffffffffffffff16815260200190815260200160002060000154600260003373ffffffffffffffffffffffffffffffffffffffff1673ffffffffffffffffffffffffffffffffffffffff1681526020019081526020016000206001015460405161100d92919061214c565b60405180910390a2565b6060806060600080600360008773ffffffffffffffffffffffffffffffffffffffff1673ffffffffffffffffffffffffffffffffffffffff16815260200190815260200160002090508060000181600101826002018360030160009054906101000a900473ffffffffffffffffffffffffffffffffffffffff1683805461109d90612540565b80601f01602080910402602001604051908101604052809291908181526020018280546110c990612540565b80156111165780601f106110eb57610100808354040283529160200191611116565b820191906000526020600020905b8154815290600101906020018083116110f957829003601f168201915b5050505050935082805461112990612540565b80601f016020809104026020016040519081016040528092919081815260200182805461115590612540565b80156111a25780601f10611177576101008083540402835291602001916111a2565b820191906000526020600020905b81548152906001019060200180831161118557829003601f168201915b505050505092508180546111b590612540565b80601f01602080910402602001604051908101604052809291908181526020018280546111e190612540565b801561122e5780601f106112035761010080835404028352916020019161122e565b820191906000526020600020905b81548152906001019060200180831161121157829003601f168201915b505050505091509450945094509450509193509193565b606060048054806020026020016040519081016040528092919081815260200182805480156112c957602002820191906000526020600020905b8160009054906101000a900473ffffffffffffffffffffffffffffffffffffffff1673ffffffffffffffffffffffffffffffffffffffff168152602001906001019080831161127f575b5050505050905090565b60008054906101000a900473ffffffffffffffffffffffffffffffffffffffff1681565b60026020528060005260406000206000915090508060000154908060010154905082565b6000600260003373ffffffffffffffffffffffffffffffffffffffff1673ffffffffffffffffffffffffffffffffffffffff168152602001908152602001600020600101549050600081116113a5576040517f08c379a000000000000000000000000000000000000000000000000000000000815260040161139c90612689565b60405180910390fd5b6000600260003373ffffffffffffffffffffffffffffffffffffffff1673ffffffffffffffffffffffffffffffffffffffff168152602001908152602001600020600101819055503373ffffffffffffffffffffffffffffffffffffffff166108fc829081150290604051600060405180830381858888f19350505050158015611433573d6000803e3d6000fd5b5050565b60008054906101000a900473ffffffffffffffffffffffffffffffffffffffff1673ffffffffffffffffffffffffffffffffffffffff163373ffffffffffffffffffffffffffffffffffffffff16146114c5576040517f08c379a00000000000000000000000000000000000000000000000000000000081526004016114bc906125bd565b60405180910390fd5b600360008473ffffffffffffffffffffffffffffffffffffffff1673ffffffffffffffffffffffffffffffffffffffff16815260200190815260200160002060040180549050821061154c576040517f08c379a0000000000000000000000000000000000000000000000000000000008152600401611543906126f5565b60405180910390fd5b80600360008573ffffffffffffffffffffffffffffffffffffffff1673ffffffffffffffffffffffffffffffffffffffff16815260200190815260200160002060040183815481106115a1576115a0612437565b5b9060005260206000209060030201600201819055508273ffffffffffffffffffffffffffffffffffffffff167ff3df48306ef5bdf8aaa9ba185697d2aec7fccac1890bd958e19337946a84b5a9600360008673ffffffffffffffffffffffffffffffffffffffff1673ffffffffffffffffffffffffffffffffffffffff168152602001908152602001600020600401848154811061164257611641612437565b5b9060005260206000209060030201600001836040516116629291906127ae565b60405180910390a2505050565b6000600360003373ffffffffffffffffffffffffffffffffffffffff1673ffffffffffffffffffffffffffffffffffffffff16815260200190815260200160002060000180546116be90612540565b905011611700576040517f08c379a00000000000000000000000000000000000000000000000000000000081526004016116f79061282a565b60405180910390fd5b600360003373ffffffffffffffffffffffffffffffffffffffff1673ffffffffffffffffffffffffffffffffffffffff168152602001908152602001600020600401604051806060016040528084815260200183815260200160008152509080600181540180825580915050600190039060005260206000209060030201600090919091909150600082015181600001908161179c91906129e1565b5060208201518160010190816117b291906129e1565b506040820151816002015550505050565b600481815481106117d357600080fd5b906000526020600020016000915054906101000a900473ffffffffffffffffffffffffffffffffffffffff1681565b6000600360003373ffffffffffffffffffffffffffffffffffffffff1673ffffffffffffffffffffffffffffffffffffffff168152602001908152602001600020600001805461185190612540565b905014611893576040517f08c379a000000000000000000000000000000000000000000000000000000000815260040161188a90612aff565b60405180910390fd5b82600360003373ffffffffffffffffffffffffffffffffffffffff1673ffffffffffffffffffffffffffffffffffffffff16815260200190815260200160002060000190816118e291906129e1565b5081600360003373ffffffffffffffffffffffffffffffffffffffff1673ffffffffffffffffffffffffffffffffffffffff168152602001908152602001600020600101908161193291906129e1565b5080600360003373ffffffffffffffffffffffffffffffffffffffff1673ffffffffffffffffffffffffffffffffffffffff168152602001908152602001600020600201908161198291906129e1565b5033600360003373ffffffffffffffffffffffffffffffffffffffff1673ffffffffffffffffffffffffffffffffffffffff16815260200190815260200160002060030160006101000a81548173ffffffffffffffffffffffffffffffffffffffff021916908373ffffffffffffffffffffffffffffffffffffffff1602179055506004339080600181540180825580915050600190039060005260206000200160009091909190916101000a81548173ffffffffffffffffffffffffffffffffffffffff021916908373ffffffffffffffffffffffffffffffffffffffff1602179055503373ffffffffffffffffffffffffffffffffffffffff167f76686aa361308f4a08557cca1a847299ce61e5602a3495cd359a599a1dca438c84604051611aad9190612b1f565b60405180910390a2505050565b60015481565b60405180606001604052806060815260200160608152602001600081525090565b600081519050919050565b600082825260208201905092915050565b6000819050602082019050919050565b600073ffffffffffffffffffffffffffffffffffffffff82169050919050565b6000611b3882611b0d565b9050919050565b611b4881611b2d565b82525050565b6000611b5a8383611b3f565b60208301905092915050565b6000602082019050919050565b6000611b7e82611ae1565b611b888185611aec565b9350611b9383611afd565b8060005b83811015611bc4578151611bab8882611b4e565b9750611bb683611b66565b925050600181019050611b97565b5085935050505092915050565b600081519050919050565b600082825260208201905092915050565b6000819050602082019050919050565b600081519050919050565b600082825260208201905092915050565b60005b83811015611c37578082015181840152602081019050611c1c565b60008484015250505050565b6000601f19601f8301169050919050565b6000611c5f82611bfd565b611c698185611c08565b9350611c79818560208601611c19565b611c8281611c43565b840191505092915050565b6000611c998383611c54565b905092915050565b6000602082019050919050565b6000611cb982611bd1565b611cc38185611bdc565b935083602082028501611cd585611bed565b8060005b85811015611d115784840389528151611cf28582611c8d565b9450611cfd83611ca1565b925060208a01995050600181019050611cd9565b50829750879550505050505092915050565b600081519050919050565b600082825260208201905092915050565b6000819050602082019050919050565b6000819050919050565b611d6281611d4f565b82525050565b6000611d748383611d59565b60208301905092915050565b6000602082019050919050565b6000611d9882611d23565b611da28185611d2e565b9350611dad83611d3f565b8060005b83811015611dde578151611dc58882611d68565b9750611dd083611d80565b925050600181019050611db1565b5085935050505092915050565b60006080820190508181036000830152611e058187611b73565b90508181036020830152611e198186611cae565b90508181036040830152611e2d8185611cae565b90508181036060830152611e418184611d8d565b905095945050505050565b6000604051905090565b600080fd5b600080fd5b611e6981611b2d565b8114611e7457600080fd5b50565b600081359050611e8681611e60565b92915050565b600060208284031215611ea257611ea1611e56565b5b6000611eb084828501611e77565b91505092915050565b600081519050919050565b600082825260208201905092915050565b6000819050602082019050919050565b60006060830160008301518482036000860152611f028282611c54565b91505060208301518482036020860152611f1c8282611c54565b9150506040830151611f316040860182611d59565b508091505092915050565b6000611f488383611ee5565b905092915050565b6000602082019050919050565b6000611f6882611eb9565b611f728185611ec4565b935083602082028501611f8485611ed5565b8060005b85811015611fc05784840389528151611fa18582611f3c565b9450611fac83611f50565b925060208a01995050600181019050611f88565b50829750879550505050505092915050565b60006020820190508181036000830152611fec8184611f5d565b905092915050565b600082825260208201905092915050565b600061201082611bfd565b61201a8185611ff4565b935061202a818560208601611c19565b61203381611c43565b840191505092915050565b61204781611b2d565b82525050565b600060808201905081810360008301526120678187612005565b9050818103602083015261207b8186612005565b9050818103604083015261208f8185612005565b905061209e606083018461203e565b95945050505050565b6120b081611d4f565b81146120bb57600080fd5b50565b6000813590506120cd816120a7565b92915050565b6000602082840312156120e9576120e8611e56565b5b60006120f7848285016120be565b91505092915050565b6000602082019050818103600083015261211a8184611b73565b905092915050565b6000602082019050612137600083018461203e565b92915050565b61214681611d4f565b82525050565b6000604082019050612161600083018561213d565b61216e602083018461213d565b9392505050565b60008060006060848603121561218e5761218d611e56565b5b600061219c86828701611e77565b93505060206121ad868287016120be565b92505060406121be868287016120be565b9150509250925092565b600080fd5b600080fd5b7f4e487b7100000000000000000000000000000000000000000000000000000000600052604160045260246000fd5b61220a82611c43565b810181811067ffffffffffffffff82111715612229576122286121d2565b5b80604052505050565b600061223c611e4c565b90506122488282612201565b919050565b600067ffffffffffffffff821115612268576122676121d2565b5b61227182611c43565b9050602081019050919050565b82818337600083830152505050565b60006122a061229b8461224d565b612232565b9050828152602081018484840111156122bc576122bb6121cd565b5b6122c784828561227e565b509392505050565b600082601f8301126122e4576122e36121c8565b5b81356122f484826020860161228d565b91505092915050565b6000806040838503121561231457612313611e56565b5b600083013567ffffffffffffffff81111561233257612331611e5b565b5b61233e858286016122cf565b925050602083013567ffffffffffffffff81111561235f5761235e611e5b565b5b61236b858286016122cf565b9150509250929050565b60008060006060848603121561238e5761238d611e56565b5b600084013567ffffffffffffffff8111156123ac576123ab611e5b565b5b6123b8868287016122cf565b935050602084013567ffffffffffffffff8111156123d9576123d8611e5b565b5b6123e5868287016122cf565b925050604084013567ffffffffffffffff81111561240657612405611e5b565b5b612412868287016122cf565b9150509250925092565b6000602082019050612431600083018461213d565b92915050565b7f4e487b7100000000000000000000000000000000000000000000000000000000600052603260045260246000fd5b7f4e487b7100000000000000000000000000000000000000000000000000000000600052601160045260246000fd5b60006124a082611d4f565b91506124ab83611d4f565b92508282019050808211156124c3576124c2612466565b5b92915050565b60006124d482611d4f565b91507fffffffffffffffffffffffffffffffffffffffffffffffffffffffffffffffff820361250657612505612466565b5b600182019050919050565b7f4e487b7100000000000000000000000000000000000000000000000000000000600052602260045260246000fd5b6000600282049050600182168061255857607f821691505b60208210810361256b5761256a612511565b5b50919050565b7f4e6f7420617574686f72697a6564000000000000000000000000000000000000600082015250565b60006125a7600e83611ff4565b91506125b282612571565b602082019050919050565b600060208201905081810360008301526125d68161259a565b9050919050565b7f4e487b7100000000000000000000000000000000000000000000000000000000600052601260045260246000fd5b600061261782611d4f565b915061262283611d4f565b925082612632576126316125dd565b5b828206905092915050565b7f4e6f206561726e696e677320746f207769746864726177000000000000000000600082015250565b6000612673601783611ff4565b915061267e8261263d565b602082019050919050565b600060208201905081810360008301526126a281612666565b9050919050565b7f496e76616c69642070726f6475637420696e6465780000000000000000000000600082015250565b60006126df601583611ff4565b91506126ea826126a9565b602082019050919050565b6000602082019050818103600083015261270e816126d2565b9050919050565b60008190508160005260206000209050919050565b6000815461273781612540565b6127418186611ff4565b9450600182166000811461275c5760018114612772576127a5565b60ff1983168652811515602002860193506127a5565b61277b85612715565b60005b8381101561279d5781548189015260018201915060208101905061277e565b808801955050505b50505092915050565b600060408201905081810360008301526127c8818561272a565b90506127d7602083018461213d565b9392505050565b7f436f6d70616e79206e6f74207265676973746572656400000000000000000000600082015250565b6000612814601683611ff4565b915061281f826127de565b602082019050919050565b6000602082019050818103600083015261284381612807565b9050919050565b60006020601f8301049050919050565b600082821b905092915050565b6000600883026128977fffffffffffffffffffffffffffffffffffffffffffffffffffffffffffffffff8261285a565b6128a1868361285a565b95508019841693508086168417925050509392505050565b6000819050919050565b60006128de6128d96128d484611d4f565b6128b9565b611d4f565b9050919050565b6000819050919050565b6128f8836128c3565b61290c612904826128e5565b848454612867565b825550505050565b600090565b612921612914565b61292c8184846128ef565b505050565b5b8181101561295057612945600082612919565b600181019050612932565b5050565b601f8211156129955761296681612715565b61296f8461284a565b8101602085101561297e578190505b61299261298a8561284a565b830182612931565b50505b505050565b600082821c905092915050565b60006129b86000198460080261299a565b1980831691505092915050565b60006129d183836129a7565b9150826002028217905092915050565b6129ea82611bfd565b67ffffffffffffffff811115612a0357612a026121d2565b5b612a0d8254612540565b612a18828285612954565b600060209050601f831160018114612a4b5760008415612a39578287015190505b612a4385826129c5565b865550612aab565b601f198416612a5986612715565b60005b82811015612a8157848901518255600182019150602085019450602081019050612a5c565b86831015612a9e5784890151612a9a601f8916826129a7565b8355505b6001600288020188555050505b505050505050565b7f436f6d70616e7920616c72656164792072656769737465726564000000000000600082015250565b6000612ae9601a83611ff4565b9150612af482612ab3565b602082019050919050565b60006020820190508181036000830152612b1881612adc565b9050919050565b60006020820190508181036000830152612b398184612005565b90509291505056fea264697066735822122049bb7418b8a4efbf910f44779ba8f07c8a4cde6e038fd904f3992b8774a3d81964736f6c63430008130033",
  "linkReferences": {},
  "deployedLinkReferences": {}
}